:020000020000FC
:0200000085C0B9
:1000680000E00093000100930101009302010FEFEB
:100078000AB907B10E6107B90FEF0BB908B10E61E4
:1000880008B90895009100014DEF18D01ED020D076
:1000980025D0009101014BEF11D017D019D01ED0F7
:1000A8000091020147EF0AD010D012D017D00CE00F
:1000B8004FEE04D00AD00CD011D00895F0E0ECEF48
:1000C800E00F08F4F395149008950FE710220895AF
:1000D8001BB818B11E61142318B908952F9300E0B6
:1000E80010E021E00A95F1F71A95E1F72A95D1F782
:1000F8002F910895BF86DBCFE6EDFD87FFE7F7FC7C
:10010800B9DEF9F108E00EBF0FEF0DBF00E0009374
:10011800C10050E060E0A4DF60930001609301013A
:1001280060930201AFDF01E0500F5A3009F0F4CFBD
:1001380050E001E0600F603109F0EECF60E0ECCFF5
:100148002F9300E010E024E00A95F1F71A95E1F703
:080158002A95D1F72F910895BB
:00000001FF
