:020000020000FC
:02000000A0C09E
:02002C0076C09C
:1000680010E020E030E00FEF04B90EE107B90FEF20
:1000780005B900E008B90895012F42E015D01BD05A
:100088001DD01FD0022F44E00FD018D01AD0032F54
:1000980048E00AD010D012D014D00CE040E104D0CF
:1000A8000AD00CD00ED00895F0E0EEEDE00F08F481
:1000B800F3951490089500E8102A089515B848B9E2
:1000C800089550E060E071E05A95F1F76A95E1F71C
:1000D8007A95D1F7089540792430191202780018DA
:1000E80008034621060E00E0009300010093010179
:1000F80000E0009380000DE0009381000DE3009381
:10010800890008E00093880002E000936F0078946B
:1001180008950F930FB70F93009100010395009373
:100128000001023031F400270093000101E0009340
:1001380001010F910FBF0F91189508E00EBF0FEF47
:100148000DBF01E00AB90BB980E090E0A0E088DFBC
:10015800CADF1A2F292F382F8FDF009101010130B4
:1001680099F083958A3009F0F4CF80E093959A301E
:1001780009F0EFCF80E090E0A395AA3009F0E9CF2D
:1001880080E090E0A0E0E5CF0BB1C1E00C270BB90F
:0801980000E000930101DDCF3E
:00000001FF
