:020000020000FC
:0200000043C1FA
:02002C0084C08E
:1000680000E00093000100930101009302010FEFEB
:1000780004B907B10E6107B90FEF05B908B1017EE0
:1000880008B908950091000142E017D01DD01FD093
:1000980024D00091010144E010D019D01ED0009165
:1000A800020148E00AD010D012D017D00CE040E18D
:1000B80004D00AD00CD011D00895F0E0EAEFE00F98
:1000C80008F4F3951490089500E8102A089515B8D7
:1000D80018B1117E142B18B908952F9300E010E081
:1000E80021E00A95F1F71A95E1F72A95D1F72F91B2
:1000F800089540792430191202780018080346211F
:10010800060E00E0009303010093040100E0009351
:1001180080000DE0009381000DE30093890008E062
:100128000093880002E000936F00789408950F937D
:100138000FB70F9300910301039500930301023059
:1001480031F400270093030101E0009304010F91AB
:100158000FBF0F91189500E010E00A95F1F71A9576
:10016800E1F79A95D1F708959A95F1F7089578945B
:100178008FEF089578948EEF089578948DEF089511
:1001880008B1016008B907B1016007B998E0E3DF79
:1001980008B10E7F08B992E0DEDF08B1016008B946
:1001A80090EAE2DF07B10E7F07B908B1016008B92C
:1001B80008951FEF06B100FF05C092E0D5DF1A953C
:1001C800A9F0F8CF1FEF06B100FD05C092E0CCDF23
:1001D8001A9561F0F8CF1FEF06B100FF05C092E055
:1001E800C3DF1A9519F0F8CF81E0089580E00895EB
:1001F80080E038E050E81FEF06B100FD03C01A9513
:1002080099F0FACF9CEDB0DF06B100FF08C0852B4E
:100218001FEF06B100FF03C01A9531F0FACF5695CB
:100228003A9509F0E8CF089580E00895A9DFF89499
:10023800C0DF8030E1F0DCDFC82FDADFB82FD8DF8D
:10024800A82FD6DF982FD4DF3C2F3B0F3A0F390F5A
:10025800803081F0381789F4C0930501B093060106
:10026800A093070190930801789481E00895789409
:100278008FEF089578948EEF089578948DEF089510
:1002880008E00EBF0FEF0DBF0FEF0AB900E00BB982
:1002980050E060E070E0E4DE34DF709300016093CA
:1002A800010150930201EEDE00910401013009F0D2
:1002B800F4CF00E000930401B9DF813079F41091A4
:1002C80007011A3128F01C310CF404C011D002C007
:1002D80011D000C004D010910801512FDECF20E0CA
:1002E8001A3018F01A502395FBCF722F612F0895FA
:0A02F800589A0895589808958BB99C
:00000001FF
