:020000020000FC
:02000000A7C097
:02002C007DC095
:1000680000E00093000100930101009302010FEFEB
:1000780004B90EE107B90FEF05B900E008B9089512
:100088000091000142E017D01DD01FD021D000916F
:10009800010144E010D019D01BD00091020148E0C2
:1000A8000AD010D012D014D00CE040E104D00AD00D
:1000B8000CD00ED00895F0E0ECEEE00F08F4F395C4
:1000C8001490089500E8102A089515B848B90895BD
:1000D80050E060E071E05A95F1F76A95E1F77A959A
:1000E800D1F70895407924301912027800180803CE
:1000F8004621060E00E0009303010093040100E08E
:10010800009380000DE0009381000DE300938900C7
:1001180008E00093880002E000936F007894089547
:100128000F930FB70F9300910301039500930301F9
:10013800023031F400270093030101E00093040129
:100148000F910FBF0F91189508E00EBF0FEF0DBF6D
:1001580001E00AB90BB980E090E0A0E081DFCADFD6
:10016800A0930001909301018093020189DF00911F
:100178000401013099F083958A3009F0F1CF80E0CD
:1001880093959A3009F0ECCF80E090E0A395AA30DF
:1001980009F0E6CF80E090E0A0E0E2CF0BB1C1E04B
:0C01A8000C270BB900E000930401DACF33
:00000001FF
