:020000020000FC
:02000000A9C095
:02002C007FC093
:1000680000E00093000100930101009302010FEFEB
:1000780004B90EE107B90FEF05B900E008B9089512
:100088000091000142E017D01DD01FD021D000916F
:10009800010144E010D019D01BD00091020148E0C2
:1000A8000AD010D012D014D00CE040E104D00AD00D
:1000B8000CD00ED00895F0E0E0EFE00F08F4F395CF
:1000C8001490089500E8102A089515B848B90895BD
:1000D8002F9300E010E021E00A95F1F71A95E1F777
:1000E8002A95D1F72F910895407924301912027872
:1000F800001808034621060E00E000930301009350
:10010800040100E0009380000DE0009381000DE3FE
:100118000093890008E00093880002E000936F00D4
:10012800789408950F930FB70F93009103010395E7
:1001380000930301023031F400270093030101E02A
:10014800009304010F910FBF0F91189508E00EBF9F
:100158000FEF0DBF01E00AB90BB950E060E070E0A5
:100168007FDFCADF709300016093010150930201A1
:1001780087DF00910401013099F053955A3009F056
:10018800F1CF50E063956A3009F0ECCF50E060E0C1
:1001980073957A3009F0E6CF50E060E070E0E2CF86
:1001A8000BB111E001270BB900E000930401DACF8D
:00000001FF
